:020000040800F2
:1000000000000520B51200080713000813130008AC
:10001000191300081F130008251300080000000032
:100020000000000000000000000000002B1300088A
:100030003713000800000000431300084F130008A6
:100040000513000805130008051300080513000830
:100050000513000805130008051300080513000820
:100060000513000805130008051300080513000810
:100070000513000805130008051300080513000800
:1000800005130008051300080513000805130008F0
:1000900005130008051300080513000805130008E0
:1000A00005130008051300080513000805130008D0
:1000B00005130008051300080513000805130008C0
:1000C00005130008051300080513000805130008B0
:1000D00005130008051300080513000805130008A0
:1000E0000513000805130008051300080513000890
:1000F0000513000805130008051300080513000880
:10010000051300080513000805130008051300086F
:10011000051300080513000805130008051300085F
:10012000051300080513000805130008051300084F
:10013000051300080513000805130008051300083F
:10014000051300080513000805130008051300082F
:10015000051300080513000805130008051300081F
:10016000051300080513000805130008051300080F
:10017000051300080513000805130008000000001F
:1001800005130008051300080513000805130008EF
:1001900005130008051300080513000805130008DF
:1001A00005130008051300080513000805130008CF
:1001B00005130008051300080513000805130008BF
:1001C00005130008051300080000000005130008CF
:1001D000051300080513000805130008051300089F
:1001E000051300080513000805130008051300088F
:0801F0000513000805130008C7
:1001F80010B5054C237833B9044B13B10448AFF359
:1002080000800123237010BD34040020000000008A
:10021800281500080C4B43B10C480D4910B5AFF335
:1002280000800C48036823B910BD0A48036833B935
:100238007047094B002BF7D0BDE810401847064B14
:10024800002BF5D0184700BF000000002815000853
:1002580038040020340400200000000080B586B077
:1002680000AF0E4A0D4B1B6B43F0020313630B4B9D
:100278001B6B03F002033B603B6823237B60012375
:10028800BB600123FB6003233B613B1D1946044807
:1002980000F0C8F900BF1837BD4680BD00380240DD
:1002A8000004024080B500AF00220121044800F09C
:1002B80063FB00220221024800F05EFB00BF80BD04
:1002C8000004024080B500AF01220121044800F07B
:1002D80053FB01220221024800F04EFB00BF80BD03
:1002E8000004024080B592B000AF4FF48033BB6188
:1002F80010237B6200233B6201237B614FF4800360
:100308003B630223FB6219237B634FF4D873BB63FF
:100318000223FB6309233B6407F11403184600F02A
:1003280093FB0346002B00D0FEE700F03DFB03469D
:10033800002B00D0FEE702237B600023BB604FF454
:10034800A053FB604FF480533B610F233B603B4657
:100358000721184600F02EFE0346002B00D0FEE7CA
:1003680000BF4837BD4680BD80B500AF00F012F829
:10037800FFF7B8FFFFF772FFFFF794FF4FF47A70AB
:1003880000F058F8FFF79EFF4FF47A7000F052F82B
:10039800F2E7000080B500AF084A084B1B6843F439
:1003A80000731360032000F009F90F2000F00EF825
:1003B80000F006F80023184680BD00BF003C02404C
:1003C80080B400AF00BFBD4680BC704780B582B026
:1003D80000AF7860094B1B68094AA2FB03239B09FD
:1003E800184600F012F9002279684FF0FF3000F04B
:1003F800F0F8002318460837BD4680BD00000020ED
:10040800D34D621080B400AF044B1B680133034A1C
:10041800136000BFBD4680BC704700BF5004002079
:1004280080B400AF024B1B681846BD4680BC7047BD
:100438005004002080B584B000AF78600023FB60D2
:10044800FFF7EEFFF86000BFFFF7EAFF0246FB6820
:10045800D21A7B689A42F7D300BF1037BD4680BDD9
:1004680080B485B000AF78607B6803F00703FB6059
:100478000B4BDB68BB60BA684FF6FF031340BB60E9
:10048800FB681A02BB681A43064B1343BB60044A55
:10049800BB68D36000BF1437BD4680BC704700BF3F
:1004A80000ED00E00000FA0580B400AF044BDB6803
:1004B8001B0A03F007031846BD4680BC704700BFFF
:1004C80000ED00E080B483B000AF03463960FB71F3
:1004D80097F90730002B0BDA0D49FB7903F00F036E
:1004E800043B3A68D2B21201D2B20B441A7609E040
:1004F800084997F907303A68D2B21201D2B20B44D0
:1005080083F8002300BF0C37BD4680BC704700BF8E
:1005180000ED00E000E100E080B489B000AFF860D1
:10052800B9607A60FB6803F00703FB61FB69C3F1FC
:100538000703042B28BF0423BB61FB690433062B84
:1005480002D9FB69033B00E000237B610122BB6900
:1005580002FA03F35A1EBB681A407B699A400121CC
:100568007B6901FA03F3591E7B680B401343184655
:100578002437BD4680BC704780B582B000AF786034
:100588007B68013BB3F1807F01D301230FE00A4A66
:100598007B68013B53600F214FF0FF30FFF792FF5C
:1005A800054B00229A60044B07221A600023184664
:1005B8000837BD4680BD00BF10E000E080B582B0BE
:1005C80000AF78607868FFF74BFF00BF0837BD467B
:1005D80080BD80B586B000AF0346B9607A60FB7312
:1005E80000237B61FFF760FF78617A68B9687869F2
:1005F800FFF792FF024697F90F3011461846FFF7AA
:1006080061FF00BF1837BD4680BD80B582B000AF1E
:1006180078607868FFF7B0FF034618460837BD468C
:1006280080BD000080B489B000AF786039600023D5
:10063800FB6100237B6100233B610023BB61002336
:10064800FB6175E10122FB6902FA03F37B613B68F8
:100658001A687B6913403B613A697B699A4240F0AA
:1006680064813B685B68022B03D03B685B68122B94
:1006780023D1FB69DA087B68083253F82230BB6162
:10068800FB6903F007039B000F2202FA03F3DB4325
:10069800BA691340BB613B681A69FB6903F0070339
:1006A8009B0002FA03F3BA691343BB61FB69DA08DA
:1006B8007B680832B96943F822107B681B68BB6104
:1006C800FB695B00032202FA03F3DB43BA691340B8
:1006D800BB613B685B6803F00302FB695B0002FADD
:1006E80003F3BA691343BB617B68BA691A603B6854
:1006F8005B68012B0BD03B685B68022B07D03B681B
:100708005B68112B03D03B685B68122B30D17B6888
:100718009B68BB61FB695B00032202FA03F3DB43BE
:10072800BA691340BB613B68DA68FB695B0002FA8F
:1007380003F3BA691343BB617B68BA699A607B6843
:100748005B68BB610122FB6902FA03F3DB43BA6908
:100758001340BB613B685B681B0903F00102FB693E
:1007680002FA03F3BA691343BB617B68BA695A603A
:100778007B68DB68BB61FB695B00032202FA03F359
:10078800DB43BA691340BB613B689A68FB695B004D
:1007980002FA03F3BA691343BB617B68BA69DA608A
:1007A8003B685B6803F08053002B00F0BE80654A0D
:1007B800644B5B6C43F480435364624B5B6C03F49F
:1007C8008043FB60FB68604AFB699B08023352F870
:1007D8002330BB61FB6903F003039B000F2202FA7D
:1007E80003F3DB43BA691340BB617B68574A934202
:1007F80037D07B68564A934231D07B68554A93423A
:100808002BD07B68544A934225D07B68534A934245
:100818001FD07B68524A934219D07B68514A934251
:1008280013D07B68504A93420DD07B684F4A93425D
:1008380007D07B684E4A934201D1092312E00A236C
:1008480010E008230EE007230CE006230AE0052346
:1008580008E0042306E0032304E0022302E0012366
:1008680000E00023FA6902F0030292009340BA699B
:100878001343BB613449FB699B080233BA6941F8E9
:1008880023203C4B1B68BB613B69DB43BA691340BF
:10089800BB613B685B6803F48033002B03D0BA6903
:1008A8003B691343BB61334ABB691360314B5B68D7
:1008B800BB613B69DB43BA691340BB613B685B685A
:1008C80003F40033002B03D0BA693B691343BB61BF
:1008D800284ABB695360274B9B68BB613B69DB4374
:1008E800BA691340BB613B685B6803F48013002B53
:1008F80003D0BA693B691343BB611E4ABB69936065
:100908001C4BDB68BB613B69DB43BA691340BB61C5
:100918003B685B6803F40013002B03D0BA693B699A
:100928001343BB61134ABB69D360FB690133FB61A5
:10093800FB690F2B7FF686AE00BF2437BD4680BC0F
:10094800704700BF003802400038014000000240F4
:100958000004024000080240000C0240001002405F
:100968000014024000180240001C0240002002400F
:1009780000240240003C014080B483B000AF78609E
:100988000B467B8013467B707B78002B03D07A88DC
:100998007B689A6103E07B881A047B689A6100BFD0
:1009A8000C37BD4680BC704780B582B000AF0023CD
:1009B8007B60234A224B1B6C43F080531364204B0B
:1009C8001B6C03F080533B603B681E4A1D4B1B6841
:1009D80043F480331360FFF723FD786009E0FFF7E5
:1009E8001FFD02467B68D31AB3F57A7F01D903232A
:1009F80022E0144B5B6803F48033B3F5803FEED1FB
:100A0800104A104B1B6843F400331360FFF708FDCE
:100A1800786009E0FFF704FD02467B68D31AB3F556
:100A28007A7F01D9032307E0064B5B6803F40033A0
:100A3800B3F5003FEED1002318460837BD4680BD08
:100A4800003802400070004080B592B000AF786076
:100A580000233B64002387F847307B681B6803F05A
:100A68000103002B00F08780A04B9B6803F00C0368
:100A7800042B0CD09D4B9B6803F00C03082B12D160
:100A88009A4B5B6803F48003B3F5800F0BD1974B47
:100A98001B6803F40033002B6CD07B685B68002B69
:100AA80068D1012380E27B685B68B3F5803F06D19B
:100AB8008E4A8E4B1B6843F4803313602EE07B68AC
:100AC8005B68002B0CD1894A884B1B6823F4803360
:100AD8001360864A854B1B6823F4802313601DE04E
:100AE8007B685B68B3F5A02F0CD1804A7F4B1B68ED
:100AF80043F4802313607D4A7C4B1B6843F48033A6
:100B080013600BE0794A794B1B6823F48033136038
:100B1800764A764B1B6823F4802313607B685B68F6
:100B2800002B13D0FFF77CFC386408E0FFF778FC53
:100B380002463B6CD31A642B01D9032334E26B4B76
:100B48001B6803F40033002BF0D014E0FFF768FCB7
:100B5800386408E0FFF764FC02463B6CD31A642B48
:100B680001D9032320E2614B1B6803F40033002BF7
:100B7800F0D100E000BF7B681B6803F00203002B84
:100B88007DD05A4B9B6803F00C03002B0BD0574BBE
:100B98009B6803F00C03082B26D1544B5B6803F4C5
:100BA8008003002B20D1514B1B6803F00203002B5C
:100BB80005D07B68DB68012B01D00123F4E14B48A9
:100BC8004A4B1B6823F0F8027B681969F823FB631A
:100BD800FB6B93FAA3F3BB63BB6BB3FA83F301FA22
:100BE80003F3134303604AE07B68DB68002B2DD0D6
:100BF8003E4A3E4B1B6843F001031360FFF710FCAD
:100C0800386408E0FFF70CFC02463B6CD31A022B51
:100C180001D90323C8E1354B1B6803F00203002BFD
:100C2800F0D03248314B1B6823F0F8027B68196911
:100C3800F8237B637B6B93FAA3F33B633B6BB3FAB9
:100C480083F301FA03F31343036018E0274A274BA1
:100C58001B6823F001031360FFF7E2FB386408E028
:100C6800FFF7DEFB02463B6CD31A022B01D90323A4
:100C78009AE11E4B1B6803F00203002BF0D17B683E
:100C88001B6803F00803002B38D07B685B69002BD6
:100C980019D0164A154B5B6F43F001035367FFF7F2
:100CA800BFFB386408E0FFF7BBFB02463B6CD31A76
:100CB800022B01D9032377E10C4B5B6F03F002038E
:100CC800002BF0D01AE0094A084B5B6F23F00103B0
:100CD8005367FFF7A5FB38640AE0FFF7A1FB02465C
:100CE8003B6CD31A022B03D903235DE10038024081
:100CF800A64B5B6F03F00203002BEED17B681B68E9
:100D080003F00403002B00F0A680A04B1B6C03F03B
:100D18008053002B0ED19D4A9C4B1B6C43F0805393
:100D280013649A4B1B6C03F08053FB60FB68012330
:100D380087F84730964B1B6803F48073002B18D153
:100D4800934A934B1B6843F480731360FFF768FB67
:100D5800386408E0FFF764FB02463B6CD31A642B47
:100D680001D9032320E18A4B1B6803F48073002B0D
:100D7800F0D07B689B68012B06D1844A834B1B6F9C
:100D880043F0010313672DE07B689B68002B0CD1AF
:100D98007E4A7E4B1B6F23F0010313677B4A7B4B14
:100DA8001B6F23F0040313671CE07B689B68052B0B
:100DB8000CD1764A754B1B6F43F004031367734AD3
:100DC800724B1B6F43F0010313670BE06F4A6F4BC5
:100DD8001B6F23F0010313676C4A6C4B1B6F23F0E6
:100DE800040313677B689B68002B15D0FFF718FB7B
:100DF80038640AE0FFF714FB02463B6CD31A41F251
:100E08008832934201D90323CEE0604B1B6F03F075
:100E18000203002BEED014E0FFF702FB38640AE06F
:100E2800FFF7FEFA02463B6CD31A41F2883293422E
:100E380001D90323B8E0554B1B6F03F00203002BC5
:100E4800EED197F84730012B05D1504A4F4B1B6C18
:100E580023F0805313647B689B69002B00F0A38008
:100E68004A4B9B6803F00C03082B00F09A807B68C0
:100E78009B69022B77D1454A444B1B6823F080734A
:100E88001360FFF7CDFA386408E0FFF7C9FA0246A5
:100E98003B6CD31A022B01D9032385E03B4B1B681B
:100EA80003F00073002BF0D138487B68DA697B685F
:100EB8001B6A1A437B68596A47F6C0737B617B6972
:100EC80093FAA3F33B613B69B3FA83F301FA03F3A3
:100ED8001A437B689B6A5B08591E4FF44033FB61D9
:100EE800FB6993FAA3F3BB61BB69B3FA83F301FA15
:100EF80003F31A437B68D96A4FF070637B627B6A9D
:100F080093FAA3F33B623B6AB3FA83F301FA03F360
:100F18001A437B68196B4FF0E043FB62FB6A93FA54
:100F2800A3F3BB62BB6AB3FA83F301FA03F3134377
:100F38004360164A154B1B6843F080731360FFF734
:100F48006FFA386408E0FFF76BFA02463B6CD31A75
:100F5800022B01D9032327E00C4B1B6803F0007315
:100F6800002BF0D01FE0094A084B1B6823F0807360
:100F78001360FFF755FA38640CE0FFF751FA0246A0
:100F88003B6CD31A022B05D903230DE0003802402D
:100F980000700040064B1B6803F00073002BECD177
:100FA80001E0012300E0002318464837BD4680BD14
:100FB8000038024080B586B000AF78603960002301
:100FC8007B61774B1B6803F00F023B689A4210D293
:100FD8007349734B1B6823F00F023B6813430B6084
:100FE8006F4B1B6803F00F023B689A4201D0012344
:100FF800D2E07B681B6803F00203002B08D0694924
:10100800684B9B6823F0F0027B689B6813438B60F6
:101018007B681B6803F00103002B6AD07B685B6860
:10102800012B07D15F4B1B6803F40033002B15D14C
:101038000123B1E07B685B68022B07D1594B1B6821
:1010480003F00073002B09D10123A5E0554B1B6861
:1010580003F00203002B01D101239DE05149514BBC
:101068009B6823F003027B685B6813438B60FFF780
:10107800D7F978617B685B68012B12D10AE0FFF72A
:10108800CFF902467B69D31A41F28832934201D9DB
:10109800032381E0434B9B6803F00C03042BEED140
:1010A80027E07B685B68022B1DD10AE0FFF7B8F9DF
:1010B80002467B69D31A41F28832934201D903234D
:1010C8006AE0384B9B6803F00C03082BEED110E064
:1010D800FFF7A6F902467B69D31A41F28832934298
:1010E80001D9032358E02F4B9B6803F00C03002B16
:1010F800EED12B4B1B6803F00F023B689A4210D9C4
:101108002749274B1B6823F00F023B6813430B60EA
:10111800234B1B6803F00F023B689A4201D001235E
:101128003AE07B681B6803F00403002B08D01D49D4
:101138001C4B9B6823F4E0527B68DB6813438B608D
:101148007B681B6803F00803002B09D01549154B71
:101158009B6823F460427B681B69DB0013438B6048
:1011680000F026F801460F4B9B6803F0F002F023CD
:101178003B613B6993FAA3F3FB60FB68B3FA83F323
:1011880022FA03F3084AD35C21FA03F3074A1360EF
:101198000F20FFF71BF9002318461837BD4680BDFE
:1011A800003C0240003802404015000800000020C2
:1011B80080B48BB000AF0023FB6100237B62002367
:1011C800BB6100233B62364B9B6803F00C03042B86
:1011D80006D0082B07D0002B58D1324B3B6258E081
:1011E800314B3B6255E02E4B5B6803F03F03FB61DC
:1011F8002B4B5B6803F48003002B17D02A4AFB694A
:10120800B2FBF3F2264B596847F6C0730B4047F61A
:10121800C0717961796991FAA1F139613969B1FAD5
:1012280081F1CB4003FB02F37B6216E01D4AFB69A8
:10123800B2FBF3F21A4B596847F6C0730B4047F6F6
:10124800C071F960F96891FAA1F1B960B968B1FAA9
:1012580081F1CB4003FB02F37B62114B5B6803F423
:1012680040324FF440337B607B6893FAA3F33B60D2
:101278003B68B3FA83F322FA03F301335B00BB61E3
:101288007A6ABB69B2FBF3F33B6202E0054B3B624F
:1012980000BF3B6A18462C37BD4680BC704700BF6C
:1012A800003802400024F40040787D01DFF834D093
:1012B800002103E00C4B5B58435004310B480C4BA6
:1012C80042189A42F6D30B4A02E0002342F8043B44
:1012D800094B9A42F9D300F03DF800F069F8FFF79E
:1012E80043F8704700000520601500080000002042
:1012F800340400203404002078040020FEE780B481
:1013080000AF00BFBD4680BC704780B400AFFEE7A9
:1013180080B400AFFEE780B400AFFEE780B400AF52
:10132800FEE780B400AF00BFBD4680BC704780B404
:1013380000AF00BFBD4680BC704780B400AF00BF9F
:10134800BD4680BC704780B500AFFFF75BF800BFB3
:1013580080BD000080B400AF114A114B1B6843F0F8
:10136800010313600E4B00229A600D490C4B1A685A
:101378000C4B13400B600A4B0B4A5A60084A084B47
:101388001B6823F480231360054B0022DA60074BA7
:101398004FF000629A6000BFBD4680BC704700BF36
:1013A80000380240FFFFF6FE1030002400ED00E098
:1013B80070B50F4E0F4D761BB61018BF002405D020
:1013C800013455F8043B9847A642F9D10A4E0B4D13
:1013D800761B00F0A5F8B61018BF002406D001341B
:1013E80055F8043B9847A642F9D170BD70BD00BFBF
:1013F80054150008541500085C1500085415000819
:10140800024B13B1024800F005B870470000000015
:1014180029140008002301461A46184600F01EB891
:1014280038B50A4C0A4D641BA4100AD004F1804355
:10143800013B05EB8305013C55F804399847002C1E
:10144800F9D1BDE8384000F071B800BF6015000858
:101458005C150008704700BF704700BF2DE9F843CE
:101468002C4D0646286898460F469146FFF7F2FF2E
:10147800294B1C68D4F84831002B3ED05A681F2AE3
:101488001CDC02F1010E76B103EB82010124C1F8E4
:101498008890D3F8880194402043022EC3F888012D
:1014A800C1F8088123D00232C3F804E0286843F861
:1014B8002270FFF7D1FF0020BDE8F883174B0BB36C
:1014C8004FF4C870AFF300800346D8B1D4F8482170
:1014D8000260002141600A46C4F848014FF0010E3D
:1014E800C0F88811C0F88C11002EDCD0CCE7D3F8F6
:1014F8008C110C43C3F88C41D5E704F5A673C4F8E6
:101508004831BBE72868FFF7A7FF4FF0FF30BDE879
:10151800F88300BF300400205015000800000000C8
:10152800F8B500BFF8BC08BC9E467047F8B500BFC8
:08153800F8BC08BC9E46704798
:101540000000000000000000010203040607080973
:04155000080000206F
:08155400091400081D02000843
:04155C00F901000889
:101560000024F4000000000000000000F40200204D
:101570005C030020C4030020000000000000000005
:10158000000000000000000000000000000000005B
:10159000000000000000000000000000000000004B
:1015A000000000000000000000000000000000003B
:1015B000000000000000000000000000000000002B
:1015C000000000000000000000000000000000001B
:1015D000000000000000000000000000000000000B
:1015E00000000000000000000000000000000000FB
:1015F00000000000000000000000000000000000EB
:1016000000000000000000000000000000000000DA
:1016100001000000000000000E33CDAB34126DE677
:10162000ECDE05000B0000000000000000000000E0
:1016300000000000000000000000000000000000AA
:10164000000000000000000000000000000000009A
:10165000000000000000000000000000000000008A
:10166000000000000000000000000000000000007A
:0419900054040020DB
:04000005080012B528
:00000001FF
