:020000040800F2
:10000000000005200D0900085D0900085D090008D1
:100010005D0900085D0900085D0900080000000096
:100020000000000000000000000000005D09000862
:100030005D090008000000005D0900085D09000876
:100040005D0900085D0900085D0900085D090008F8
:100050005D0900085D0900085D0900085D090008E8
:100060005D0900085D0900085D0900085D090008D8
:100070005D0900085D0900085D0900085D090008C8
:100080005D0900085D0900085D0900085D090008B8
:100090005D0900085D0900085D0900085D090008A8
:1000A0005D0900085D0900085D0900085D09000898
:1000B0005D0900085D0900085D0900085D09000888
:1000C0005D0900085D0900085D0900085D09000878
:1000D0005D0900085D0900085D0900085D09000868
:1000E0005D0900085D0900085D0900085D09000858
:1000F0005D0900085D0900085D0900085D09000848
:100100005D0900085D0900085D0900085D09000837
:100110005D0900085D0900085D0900085D09000827
:100120005D0900085D0900085D0900085D09000817
:100130005D0900085D0900085D0900085D09000807
:100140005D0900085D0900085D0900085D090008F7
:100150005D0900085D0900085D0900085D090008E7
:100160005D0900085D0900085D0900085D090008D7
:100170005D0900085D0900085D0900080000000035
:100180005D0900085D0900085D0900085D090008B7
:100190005D0900085D0900085D0900085D090008A7
:1001A0005D0900085D0900085D0900085D09000897
:1001B0005D0900085D0900085D0900085D09000887
:1001C0005D0900085D090008000000005D090008E5
:1001D0005D0900085D0900085D0900085D09000867
:1001E0005D0900085D0900085D0900085D09000857
:0801F0005D0900085D0900082B
:1001F80010B5054C237833B9044B13B10448AFF359
:1002080000800123237010BD34040020000000008A
:100218002C0B00080C4B43B10C480D4910B5AFF33B
:1002280000800C48036823B910BD0A48036833B935
:100238007047094B002BF7D0BDE810401847064B14
:10024800002BF5D0184700BF000000002C0B000859
:1002580038040020340400200000000080B586B077
:1002680000AF0E4A0D4B1B6B43F0020313630B4B9D
:100278001B6B03F002033B603B6823237B60012375
:10028800BB600123FB6003233B613B1D1946044807
:1002980000F076F900BF1837BD4680BD003802402F
:1002A8000004024080B500AF00220121044800F09C
:1002B80011FB00220221024800F00CFB00BF80BDA8
:1002C8000004024080B500AF01220121044800F07B
:1002D80001FB01220221024800F0FCFA00BF80BDA8
:1002E8000004024080B500AF00F010F8FFF7B6FF39
:1002F800FFF7D8FF4FF47A7000F04AF8FFF7E2FFF3
:100308004FF47A7000F044F8F2E7000080B500AFCF
:10031800084A084B1B6843F400731360032000F07D
:10032800FBF80F2000F00EF800F006F8002318463E
:1003380080BD00BF003C024080B400AF00BFBD4696
:1003480080BC704780B582B000AF7860094B1B68ED
:10035800094AA2FB03239B09184600F004F900226E
:1003680079684FF0FF3000F0E2F8002318460837AC
:10037800BD4680BD00000020D34D621080B400AFA0
:10038800024B1B681846BD4680BC704750040020CD
:1003980080B584B000AF78600023FB60FFF7EEFF04
:1003A800F86000BFFFF7EAFF0246FB68D21A7B68D5
:1003B8009A42F7D300BF1037BD4680BD80B485B0E0
:1003C80000AF78607B6803F00703FB600B4BDB68CA
:1003D800BB60BA684FF6FF031340BB60FB681A02A4
:1003E800BB681A43064B1343BB60044ABB68D3601F
:1003F80000BF1437BD4680BC704700BF00ED00E069
:100408000000FA0580B400AF044BDB681B0A03F058
:1004180007031846BD4680BC704700BF00ED00E0EA
:1004280080B483B000AF03463960FB7197F9073099
:10043800002B0BDA0D49FB7903F00F03043B3A68F4
:10044800D2B21201D2B20B441A7609E0084997F9E0
:1004580007303A68D2B21201D2B20B4483F80023B3
:1004680000BF0C37BD4680BC704700BF00ED00E000
:1004780000E100E080B489B000AFF860B9607A604C
:10048800FB6803F00703FB61FB69C3F10703042B57
:1004980028BF0423BB61FB690433062B02D9FB691F
:1004A800033B00E000237B610122BB6902FA03F3EE
:1004B8005A1EBB681A407B699A4001217B6901FA80
:1004C80003F3591E7B680B40134318462437BD4677
:1004D80080BC704780B582B000AF78607B68013B14
:1004E800B3F1807F01D301230FE00A4A7B68013B07
:1004F80053600F214FF0FF30FFF792FF054B0022AA
:100508009A60044B07221A60002318460837BD4634
:1005180080BD00BF10E000E080B582B000AF786019
:100528007868FFF74BFF00BF0837BD4680BD80B530
:1005380086B000AF0346B9607A60FB7300237B6125
:10054800FFF760FF78617A68B9687869FFF792FF0A
:10055800024697F90F3011461846FFF761FF00BFB2
:100568001837BD4680BD80B582B000AF7860786826
:10057800FFF7B0FF034618460837BD4680BD0000A8
:1005880080B489B000AF786039600023FB61002334
:100598007B6100233B610023BB610023FB6175E1A4
:1005A8000122FB6902FA03F37B613B681A687B69E5
:1005B80013403B613A697B699A4240F064813B6829
:1005C8005B68022B03D03B685B68122B23D1FB6965
:1005D800DA087B68083253F82230BB61FB6903F004
:1005E80007039B000F2202FA03F3DB43BA691340A7
:1005F800BB613B681A69FB6903F007039B0002FAB9
:1006080003F3BA691343BB61FB69DA087B680832F4
:10061800B96943F822107B681B68BB61FB695B0002
:10062800032202FA03F3DB43BA691340BB613B6858
:100638005B6803F00302FB695B0002FA03F3BA6923
:100648001343BB617B68BA691A603B685B68012B1E
:100658000BD03B685B68022B07D03B685B68112BAB
:1006680003D03B685B68122B30D17B689B68BB6109
:10067800FB695B00032202FA03F3DB43BA69134008
:10068800BB613B68DA68FB695B0002FA03F3BA698D
:100698001343BB617B68BA699A607B685B68BB611E
:1006A8000122FB6902FA03F3DB43BA691340BB6119
:1006B8003B685B681B0903F00102FB6902FA03F35C
:1006C800BA691343BB617B68BA695A607B68DB68A7
:1006D800BB61FB695B00032202FA03F3DB43BA69DF
:1006E8001340BB613B689A68FB695B0002FA03F33D
:1006F800BA691343BB617B68BA69DA603B685B68B7
:1007080003F08053002B00F0BE80654A644B5B6C9D
:1007180043F480435364624B5B6C03F48043FB6097
:10072800FB68604AFB699B08023352F82330BB61BF
:10073800FB6903F003039B000F2202FA03F3DB4378
:10074800BA691340BB617B68574A934237D07B68CC
:10075800564A934231D07B68554A93422BD07B68E6
:10076800544A934225D07B68534A93421FD07B68F2
:10077800524A934219D07B68514A934213D07B68FE
:10078800504A93420DD07B684F4A934207D07B680A
:100798004E4A934201D1092312E00A2310E00823AC
:1007A8000EE007230CE006230AE0052308E00423F3
:1007B80006E0032304E0022302E0012300E0002313
:1007C800FA6902F0030292009340BA691343BB61CD
:1007D8003449FB699B080233BA6941F823203C4B32
:1007E8001B68BB613B69DB43BA691340BB613B686B
:1007F8005B6803F48033002B03D0BA693B69134369
:10080800BB61334ABB691360314B5B68BB613B69B1
:10081800DB43BA691340BB613B685B6803F4003390
:10082800002B03D0BA693B691343BB61284ABB69F3
:100838005360274B9B68BB613B69DB43BA69134034
:10084800BB613B685B6803F48013002B03D0BA6973
:100858003B691343BB611E4ABB6993601C4BDB6851
:10086800BB613B69DB43BA691340BB613B685B68AA
:1008780003F40013002B03D0BA693B691343BB612F
:10088800134ABB69D360FB690133FB61FB690F2B1A
:100898007FF686AE00BF2437BD4680BC704700BFD8
:1008A80000380240003801400000024000040240C5
:1008B80000080240000C02400010024000140240F0
:1008C80000180240001C02400020024000240240A0
:1008D800003C014080B483B000AF78600B467B8059
:1008E80013467B707B78002B03D07A887B689A61EB
:1008F80003E07B881A047B689A6100BF0C37BD4609
:1009080080BC7047DFF834D0002103E00C4B5B5803
:10091800435004310B480C4B42189A42F6D30B4A09
:1009280002E0002342F8043B094B9A42F9D300F055
:1009380013F800F03FF8FFF7D5FC704700000520DA
:10094800540B000800000020340400203404002068
:1009580078040020FEE7000080B400AF114A114B74
:100968001B6843F0010313600E4B00229A600D4987
:100978000C4B1A680C4B13400B600A4B0B4A5A601D
:10098800084A084B1B6823F480231360054B002298
:10099800DA60074B4FF000629A6000BFBD4680BC2A
:1009A800704700BF00380240FFFFF6FE10300024F9
:1009B80000ED00E070B50F4E0F4D761BB61018BF56
:1009C800002405D0013455F8043B9847A642F9D1D4
:1009D8000A4E0B4D761B00F0A5F8B61018BF002480
:1009E80006D0013455F8043B9847A642F9D170BDAA
:1009F80070BD00BF480B0008480B0008500B0008EA
:100A0800480B0008024B13B1024800F005B87047C4
:100A1800000000002D0A0008002301461A46184667
:100A280000F01EB838B50A4C0A4D641BA4100AD051
:100A380004F18043013B05EB8305013C55F804397B
:100A48009847002CF9D1BDE8384000F071B800BFD4
:100A5800540B0008500B0008704700BF704700BFD8
:100A68002DE9F8432C4D0646286898460F469146CE
:100A7800FFF7F2FF294B1C68D4F84831002B3ED011
:100A88005A681F2A1CDC02F1010E76B103EB8201C1
:100A98000124C1F88890D3F8880194402043022E9D
:100AA800C3F88801C1F8088123D00232C3F804E0F2
:100AB800286843F82270FFF7D1FF0020BDE8F883CB
:100AC800174B0BB34FF4C870AFF300800346D8B18F
:100AD800D4F848210260002141600A46C4F8480160
:100AE8004FF0010EC0F88811C0F88C11002EDCD030
:100AF800CCE7D3F88C110C43C3F88C41D5E704F547
:100B0800A673C4F84831BBE72868FFF7A7FF4FF082
:100B1800FF30BDE8F88300BF30040020440B000814
:100B280000000000F8B500BFF8BC08BC9E4670473E
:0C0B3800F8B500BFF8BC08BC9E46704732
:040B44000800002085
:080B48000D0A00081D0200085F
:040B5000F90100089F
:100B54000024F4000000000000000000F402002063
:100B64005C030020C403002000000000000000001B
:100B74000000000000000000000000000000000071
:100B84000000000000000000000000000000000061
:100B94000000000000000000000000000000000051
:100BA4000000000000000000000000000000000041
:100BB4000000000000000000000000000000000031
:100BC4000000000000000000000000000000000021
:100BD4000000000000000000000000000000000011
:100BE4000000000000000000000000000000000001
:100BF40000000000000000000000000000000000F1
:100C040001000000000000000E33CDAB34126DE68D
:100C1400ECDE05000B0000000000000000000000F6
:100C240000000000000000000000000000000000C0
:100C340000000000000000000000000000000000B0
:100C440000000000000000000000000000000000A0
:100C54000000000000000000000000000000000090
:040F840054040020F1
:040000050800090DD9
:00000001FF
